{
  "_format": "hh-sol-artifact-1",
  "contractName": "CredentialRegistry",
  "sourceName": "contracts/CredentialRegistry.sol",
  "abi": [
    {
      "inputs": [],
      "stateMutability": "nonpayable",
      "type": "constructor"
    },
    {
      "inputs": [
        {
          "internalType": "address",
          "name": "owner",
          "type": "address"
        }
      ],
      "name": "OwnableInvalidOwner",
      "type": "error"
    },
    {
      "inputs": [
        {
          "internalType": "address",
          "name": "account",
          "type": "address"
        }
      ],
      "name": "OwnableUnauthorizedAccount",
      "type": "error"
    },
    {
      "anonymous": false,
      "inputs": [
        {
          "indexed": true,
          "internalType": "bytes32",
          "name": "credentialId",
          "type": "bytes32"
        },
        {
          "indexed": true,
          "internalType": "address",
          "name": "issuer",
          "type": "address"
        },
        {
          "indexed": false,
          "internalType": "string",
          "name": "studentName",
          "type": "string"
        },
        {
          "indexed": false,
          "internalType": "string",
          "name": "courseName",
          "type": "string"
        },
        {
          "indexed": false,
          "internalType": "uint256",
          "name": "issueDate",
          "type": "uint256"
        }
      ],
      "name": "CredentialIssued",
      "type": "event"
    },
    {
      "anonymous": false,
      "inputs": [
        {
          "indexed": true,
          "internalType": "bytes32",
          "name": "credentialId",
          "type": "bytes32"
        }
      ],
      "name": "CredentialRevoked",
      "type": "event"
    },
    {
      "anonymous": false,
      "inputs": [
        {
          "indexed": true,
          "internalType": "address",
          "name": "issuer",
          "type": "address"
        }
      ],
      "name": "IssuerAuthorized",
      "type": "event"
    },
    {
      "anonymous": false,
      "inputs": [
        {
          "indexed": true,
          "internalType": "address",
          "name": "issuer",
          "type": "address"
        }
      ],
      "name": "IssuerRevoked",
      "type": "event"
    },
    {
      "anonymous": false,
      "inputs": [
        {
          "indexed": true,
          "internalType": "address",
          "name": "previousOwner",
          "type": "address"
        },
        {
          "indexed": true,
          "internalType": "address",
          "name": "newOwner",
          "type": "address"
        }
      ],
      "name": "OwnershipTransferred",
      "type": "event"
    },
    {
      "inputs": [
        {
          "internalType": "address",
          "name": "issuer",
          "type": "address"
        }
      ],
      "name": "authorizeIssuer",
      "outputs": [],
      "stateMutability": "nonpayable",
      "type": "function"
    },
    {
      "inputs": [
        {
          "internalType": "address",
          "name": "",
          "type": "address"
        }
      ],
      "name": "authorizedIssuers",
      "outputs": [
        {
          "internalType": "bool",
          "name": "",
          "type": "bool"
        }
      ],
      "stateMutability": "view",
      "type": "function"
    },
    {
      "inputs": [
        {
          "internalType": "string",
          "name": "data",
          "type": "string"
        }
      ],
      "name": "hashCredentialData",
      "outputs": [
        {
          "internalType": "bytes32",
          "name": "",
          "type": "bytes32"
        }
      ],
      "stateMutability": "pure",
      "type": "function"
    },
    {
      "inputs": [
        {
          "internalType": "string",
          "name": "studentName",
          "type": "string"
        },
        {
          "internalType": "string",
          "name": "courseName",
          "type": "string"
        },
        {
          "internalType": "bytes32",
          "name": "credentialHash",
          "type": "bytes32"
        }
      ],
      "name": "issueCredential",
      "outputs": [
        {
          "internalType": "bytes32",
          "name": "credentialId",
          "type": "bytes32"
        }
      ],
      "stateMutability": "nonpayable",
      "type": "function"
    },
    {
      "inputs": [],
      "name": "owner",
      "outputs": [
        {
          "internalType": "address",
          "name": "",
          "type": "address"
        }
      ],
      "stateMutability": "view",
      "type": "function"
    },
    {
      "inputs": [],
      "name": "renounceOwnership",
      "outputs": [],
      "stateMutability": "nonpayable",
      "type": "function"
    },
    {
      "inputs": [
        {
          "internalType": "bytes32",
          "name": "credentialId",
          "type": "bytes32"
        }
      ],
      "name": "revokeCredential",
      "outputs": [],
      "stateMutability": "nonpayable",
      "type": "function"
    },
    {
      "inputs": [
        {
          "internalType": "address",
          "name": "issuer",
          "type": "address"
        }
      ],
      "name": "revokeIssuer",
      "outputs": [],
      "stateMutability": "nonpayable",
      "type": "function"
    },
    {
      "inputs": [
        {
          "internalType": "address",
          "name": "newOwner",
          "type": "address"
        }
      ],
      "name": "transferOwnership",
      "outputs": [],
      "stateMutability": "nonpayable",
      "type": "function"
    },
    {
      "inputs": [
        {
          "internalType": "bytes32",
          "name": "credentialId",
          "type": "bytes32"
        }
      ],
      "name": "verifyCredential",
      "outputs": [
        {
          "internalType": "bool",
          "name": "isValid",
          "type": "bool"
        },
        {
          "components": [
            {
              "internalType": "bytes32",
              "name": "credentialHash",
              "type": "bytes32"
            },
            {
              "internalType": "address",
              "name": "issuer",
              "type": "address"
            },
            {
              "internalType": "string",
              "name": "studentName",
              "type": "string"
            },
            {
              "internalType": "string",
              "name": "courseName",
              "type": "string"
            },
            {
              "internalType": "uint256",
              "name": "issueDate",
              "type": "uint256"
            },
            {
              "internalType": "bool",
              "name": "isRevoked",
              "type": "bool"
            }
          ],
          "internalType": "struct CredentialRegistry.Credential",
          "name": "credential",
          "type": "tuple"
        }
      ],
      "stateMutability": "view",
      "type": "function"
    }
  ],
  "bytecode": "0x608060405234801561001057600080fd5b5033600073ffffffffffffffffffffffffffffffffffffffff168173ffffffffffffffffffffffffffffffffffffffff16036100845760006040517f1e4fbdf700000000000000000000000000000000000000000000000000000000815260040161007b91906101f6565b60405180910390fd5b610093816100f160201b60201c565b506001600260003373ffffffffffffffffffffffffffffffffffffffff1673ffffffffffffffffffffffffffffffffffffffff16815260200190815260200160002060006101000a81548160ff021916908315150217905550610211565b60008060009054906101000a900473ffffffffffffffffffffffffffffffffffffffff169050816000806101000a81548173ffffffffffffffffffffffffffffffffffffffff021916908373ffffffffffffffffffffffffffffffffffffffff1602179055508173ffffffffffffffffffffffffffffffffffffffff168173ffffffffffffffffffffffffffffffffffffffff167f8be0079c531659141344cd1fd0a4f28419497f9722a3daafe3b4186f6b6457e060405160405180910390a35050565b600073ffffffffffffffffffffffffffffffffffffffff82169050919050565b60006101e0826101b5565b9050919050565b6101f0816101d5565b82525050565b600060208201905061020b60008301846101e7565b92915050565b611913806102206000396000f3fe608060405234801561001057600080fd5b506004361061009d5760003560e01c80638da5cb5b116100665780638da5cb5b14610145578063ca6eec7814610163578063f2fde38b1461017f578063f731fa0f1461019b578063fa491013146101cb5761009d565b8062629679146100a2578063436693d5146100be5780634dbf87cc146100da5780635c591ef11461010b578063715018a61461013b575b600080fd5b6100bc60048036038101906100b79190610d4c565b6101fb565b005b6100d860048036038101906100d39190610d4c565b6102a1565b005b6100f460048036038101906100ef9190610daf565b610347565b604051610102929190610f5d565b60405180910390f35b610125600480360381019061012091906110c2565b610582565b604051610132919061115c565b60405180910390f35b6101436107f3565b005b61014d610807565b60405161015a9190611186565b60405180910390f35b61017d60048036038101906101789190610daf565b610830565b005b61019960048036038101906101949190610d4c565b610a60565b005b6101b560048036038101906101b09190610d4c565b610ae6565b6040516101c291906111a1565b60405180910390f35b6101e560048036038101906101e091906111bc565b610b06565b6040516101f2919061115c565b60405180910390f35b610203610b36565b6000600260008373ffffffffffffffffffffffffffffffffffffffff1673ffffffffffffffffffffffffffffffffffffffff16815260200190815260200160002060006101000a81548160ff0219169083151502179055508073ffffffffffffffffffffffffffffffffffffffff167f95a4c2ae425bb769549aa1a911911ff57c17ae811ae8c8962d0b9746fcb1539760405160405180910390a250565b6102a9610b36565b6001600260008373ffffffffffffffffffffffffffffffffffffffff1673ffffffffffffffffffffffffffffffffffffffff16815260200190815260200160002060006101000a81548160ff0219169083151502179055508073ffffffffffffffffffffffffffffffffffffffff167f8b4006ca14f23d4e7aa8d120d1ab7c3761d650eefac1a5d6732dbea94b54ea2460405160405180910390a250565b6000610351610c89565b8260006001600083815260200190815260200160002060040154036103ab576040517f08c379a00000000000000000000000000000000000000000000000000000000081526004016103a290611262565b60405180910390fd5b600160008581526020019081526020016000206040518060c0016040529081600082015481526020016001820160009054906101000a900473ffffffffffffffffffffffffffffffffffffffff1673ffffffffffffffffffffffffffffffffffffffff1673ffffffffffffffffffffffffffffffffffffffff168152602001600282018054610439906112b1565b80601f0160208091040260200160405190810160405280929190818152602001828054610465906112b1565b80156104b25780601f10610487576101008083540402835291602001916104b2565b820191906000526020600020905b81548152906001019060200180831161049557829003601f168201915b505050505081526020016003820180546104cb906112b1565b80601f01602080910402602001604051908101604052809291908181526020018280546104f7906112b1565b80156105445780601f1061051957610100808354040283529160200191610544565b820191906000526020600020905b81548152906001019060200180831161052757829003601f168201915b50505050508152602001600482015481526020016005820160009054906101000a900460ff16151515158152505091508160a0015115925050915091565b6000600260003373ffffffffffffffffffffffffffffffffffffffff1673ffffffffffffffffffffffffffffffffffffffff16815260200190815260200160002060009054906101000a900460ff16610610576040517f08c379a00000000000000000000000000000000000000000000000000000000081526004016106079061132e565b60405180910390fd5b813342604051602001610625939291906113d8565b6040516020818303038152906040528051906020012090506000600160008381526020019081526020016000206004015414610696576040517f08c379a000000000000000000000000000000000000000000000000000000000815260040161068d90611461565b60405180910390fd5b6040518060c001604052808381526020013373ffffffffffffffffffffffffffffffffffffffff16815260200185815260200184815260200142815260200160001515815250600160008381526020019081526020016000206000820151816000015560208201518160010160006101000a81548173ffffffffffffffffffffffffffffffffffffffff021916908373ffffffffffffffffffffffffffffffffffffffff1602179055506040820151816002019081610755919061162d565b50606082015181600301908161076b919061162d565b506080820151816004015560a08201518160050160006101000a81548160ff0219169083151502179055509050503373ffffffffffffffffffffffffffffffffffffffff16817f67ca159831625b409479e1813b8510775acf0217e3e5964a3957f31ba9f6cbbc8686426040516107e493929190611747565b60405180910390a39392505050565b6107fb610b36565b6108056000610bbd565b565b60008060009054906101000a900473ffffffffffffffffffffffffffffffffffffffff16905090565b600260003373ffffffffffffffffffffffffffffffffffffffff1673ffffffffffffffffffffffffffffffffffffffff16815260200190815260200160002060009054906101000a900460ff166108bc576040517f08c379a00000000000000000000000000000000000000000000000000000000081526004016108b39061132e565b60405180910390fd5b806000600160008381526020019081526020016000206004015403610916576040517f08c379a000000000000000000000000000000000000000000000000000000000815260040161090d90611262565b60405180910390fd5b60006001600084815260200190815260200160002090503373ffffffffffffffffffffffffffffffffffffffff168160010160009054906101000a900473ffffffffffffffffffffffffffffffffffffffff1673ffffffffffffffffffffffffffffffffffffffff16146109bf576040517f08c379a00000000000000000000000000000000000000000000000000000000081526004016109b6906117fe565b60405180910390fd5b8060050160009054906101000a900460ff1615610a11576040517f08c379a0000000000000000000000000000000000000000000000000000000008152600401610a089061186a565b60405180910390fd5b60018160050160006101000a81548160ff021916908315150217905550827f3cc2375f3fc7711ba27361cde93880f578742f9f050acee766bed662d117ba7260405160405180910390a2505050565b610a68610b36565b600073ffffffffffffffffffffffffffffffffffffffff168173ffffffffffffffffffffffffffffffffffffffff1603610ada5760006040517f1e4fbdf7000000000000000000000000000000000000000000000000000000008152600401610ad19190611186565b60405180910390fd5b610ae381610bbd565b50565b60026020528060005260406000206000915054906101000a900460ff1681565b600081604051602001610b1991906118c6565b604051602081830303815290604052805190602001209050919050565b610b3e610c81565b73ffffffffffffffffffffffffffffffffffffffff16610b5c610807565b73ffffffffffffffffffffffffffffffffffffffff1614610bbb57610b7f610c81565b6040517f118cdaa7000000000000000000000000000000000000000000000000000000008152600401610bb29190611186565b60405180910390fd5b565b60008060009054906101000a900473ffffffffffffffffffffffffffffffffffffffff169050816000806101000a81548173ffffffffffffffffffffffffffffffffffffffff021916908373ffffffffffffffffffffffffffffffffffffffff1602179055508173ffffffffffffffffffffffffffffffffffffffff168173ffffffffffffffffffffffffffffffffffffffff167f8be0079c531659141344cd1fd0a4f28419497f9722a3daafe3b4186f6b6457e060405160405180910390a35050565b600033905090565b6040518060c0016040528060008019168152602001600073ffffffffffffffffffffffffffffffffffffffff1681526020016060815260200160608152602001600081526020016000151581525090565b6000604051905090565b600080fd5b600080fd5b600073ffffffffffffffffffffffffffffffffffffffff82169050919050565b6000610d1982610cee565b9050919050565b610d2981610d0e565b8114610d3457600080fd5b50565b600081359050610d4681610d20565b92915050565b600060208284031215610d6257610d61610ce4565b5b6000610d7084828501610d37565b91505092915050565b6000819050919050565b610d8c81610d79565b8114610d9757600080fd5b50565b600081359050610da981610d83565b92915050565b600060208284031215610dc557610dc4610ce4565b5b6000610dd384828501610d9a565b91505092915050565b60008115159050919050565b610df181610ddc565b82525050565b610e0081610d79565b82525050565b610e0f81610d0e565b82525050565b600081519050919050565b600082825260208201905092915050565b60005b83811015610e4f578082015181840152602081019050610e34565b60008484015250505050565b6000601f19601f8301169050919050565b6000610e7782610e15565b610e818185610e20565b9350610e91818560208601610e31565b610e9a81610e5b565b840191505092915050565b6000819050919050565b610eb881610ea5565b82525050565b610ec781610ddc565b82525050565b600060c083016000830151610ee56000860182610df7565b506020830151610ef86020860182610e06565b5060408301518482036040860152610f108282610e6c565b91505060608301518482036060860152610f2a8282610e6c565b9150506080830151610f3f6080860182610eaf565b5060a0830151610f5260a0860182610ebe565b508091505092915050565b6000604082019050610f726000830185610de8565b8181036020830152610f848184610ecd565b90509392505050565b600080fd5b600080fd5b7f4e487b7100000000000000000000000000000000000000000000000000000000600052604160045260246000fd5b610fcf82610e5b565b810181811067ffffffffffffffff82111715610fee57610fed610f97565b5b80604052505050565b6000611001610cda565b905061100d8282610fc6565b919050565b600067ffffffffffffffff82111561102d5761102c610f97565b5b61103682610e5b565b9050602081019050919050565b82818337600083830152505050565b600061106561106084611012565b610ff7565b90508281526020810184848401111561108157611080610f92565b5b61108c848285611043565b509392505050565b600082601f8301126110a9576110a8610f8d565b5b81356110b9848260208601611052565b91505092915050565b6000806000606084860312156110db576110da610ce4565b5b600084013567ffffffffffffffff8111156110f9576110f8610ce9565b5b61110586828701611094565b935050602084013567ffffffffffffffff81111561112657611125610ce9565b5b61113286828701611094565b925050604061114386828701610d9a565b9150509250925092565b61115681610d79565b82525050565b6000602082019050611171600083018461114d565b92915050565b61118081610d0e565b82525050565b600060208201905061119b6000830184611177565b92915050565b60006020820190506111b66000830184610de8565b92915050565b6000602082840312156111d2576111d1610ce4565b5b600082013567ffffffffffffffff8111156111f0576111ef610ce9565b5b6111fc84828501611094565b91505092915050565b600082825260208201905092915050565b7f4368756e6720636869206b686f6e6720746f6e20746169000000000000000000600082015250565b600061124c601783611205565b915061125782611216565b602082019050919050565b6000602082019050818103600083015261127b8161123f565b9050919050565b7f4e487b7100000000000000000000000000000000000000000000000000000000600052602260045260246000fd5b600060028204905060018216806112c957607f821691505b6020821081036112dc576112db611282565b5b50919050565b7f4b686f6e6720636f20717579656e20636170206368756e672063686900000000600082015250565b6000611318601c83611205565b9150611323826112e2565b602082019050919050565b600060208201905081810360008301526113478161130b565b9050919050565b6000819050919050565b61136961136482610d79565b61134e565b82525050565b60008160601b9050919050565b60006113878261136f565b9050919050565b60006113998261137c565b9050919050565b6113b16113ac82610d0e565b61138e565b82525050565b6000819050919050565b6113d26113cd82610ea5565b6113b7565b82525050565b60006113e48286611358565b6020820191506113f482856113a0565b60148201915061140482846113c1565b602082019150819050949350505050565b7f4368756e672063686920646120746f6e20746169000000000000000000000000600082015250565b600061144b601483611205565b915061145682611415565b602082019050919050565b6000602082019050818103600083015261147a8161143e565b9050919050565b60008190508160005260206000209050919050565b60006020601f8301049050919050565b600082821b905092915050565b6000600883026114e37fffffffffffffffffffffffffffffffffffffffffffffffffffffffffffffffff826114a6565b6114ed86836114a6565b95508019841693508086168417925050509392505050565b6000819050919050565b600061152a61152561152084610ea5565b611505565b610ea5565b9050919050565b6000819050919050565b6115448361150f565b61155861155082611531565b8484546114b3565b825550505050565b600090565b61156d611560565b61157881848461153b565b505050565b5b8181101561159c57611591600082611565565b60018101905061157e565b5050565b601f8211156115e1576115b281611481565b6115bb84611496565b810160208510156115ca578190505b6115de6115d685611496565b83018261157d565b50505b505050565b600082821c905092915050565b6000611604600019846008026115e6565b1980831691505092915050565b600061161d83836115f3565b9150826002028217905092915050565b61163682610e15565b67ffffffffffffffff81111561164f5761164e610f97565b5b61165982546112b1565b6116648282856115a0565b600060209050601f8311600181146116975760008415611685578287015190505b61168f8582611611565b8655506116f7565b601f1984166116a586611481565b60005b828110156116cd578489015182556001820191506020850194506020810190506116a8565b868310156116ea57848901516116e6601f8916826115f3565b8355505b6001600288020188555050505b505050505050565b600061170a82610e15565b6117148185611205565b9350611724818560208601610e31565b61172d81610e5b565b840191505092915050565b61174181610ea5565b82525050565b6000606082019050818103600083015261176181866116ff565b9050818103602083015261177581856116ff565b90506117846040830184611738565b949350505050565b7f4368692069737375657220676f63206d6f6920636f20717579656e207468752060008201527f686f690000000000000000000000000000000000000000000000000000000000602082015250565b60006117e8602383611205565b91506117f38261178c565b604082019050919050565b60006020820190508181036000830152611817816117db565b9050919050565b7f4368756e67206368692064612062692074687520686f69207472756f6320646f600082015250565b6000611854602083611205565b915061185f8261181e565b602082019050919050565b6000602082019050818103600083015261188381611847565b9050919050565b600081905092915050565b60006118a082610e15565b6118aa818561188a565b93506118ba818560208601610e31565b80840191505092915050565b60006118d28284611895565b91508190509291505056fea2646970667358221220c43095ec53695023e2d91878c265aa323c5a80d09c5d7dac20c82077bac40a2d64736f6c634300081c0033",
  "linkReferences": {},
  "deployedLinkReferences": {}
}